:100000000C94F6030C9427040C9427040C942704F6
:100010000C9427040C9427040C9427040C942704B4
:100020000C9427040C9427040C9427040C942704A4
:100030000C9427040C9427040C9427040C94270494
:100040000C9427040C9427040C9427040C94270484
:100050000C9427040C9427040C9427040C9454103B
:100060000C9427040C94370D0C940D0D0C9427045C
:100070000C9427040C9427040C9427040C94270454
:100080000C9427040C9427040C9427040C94270444
:100090000C9427040C9427040C9427040C94B9089E
:1000A0000C9427040C9427040C9427040C94270424
:1000B0000C9427040C9427040C9427040C94270414
:1000C0000C9427040C9427040C9427040C94270404
:1000D0000C9427040C9427040C9427040C942704F4
:1000E0000C94270458355D3562356C357635EF351F
:1000F0008035883590359A35A435AE35BD35C73550
:10010000EF35D135DB35E5352A142D141C142014B8
:1001100026146414311435143B143F144314491449
:100120004D145114641457145B145F140C9473121F
:100130000C945D070C94A4350C9464140C94440442
:100140000C94972A0C9440040C9490380C9431141D
:100150000C946D220C949A350C94741E0C94D13529
:100160000C94C4040C94C7350C94802A0C9463043A
:100170000C94EB090C944C040C942D140C948313E4
:100180000C9435140C943F140C9420050C9411120B
:100190000C94AF050C94DB350C94A70A0C948035B5
:1001A0000C94E0140C948C2A0C942A140C94530B89
:1001B0000C9490350C945B130C94A5120C94E535BB
:1001C0000C941E130C945B140C9451140C94411356
:1001D0000C948A2A0C945F140C94AE350C94D117AD
:1001E0000C945C040C94CD050C9424060C948006AD
:1001F0000C9406120C9462350C9449140C94EF354F
:100200000C946C350C9476350C9429040C94C50C24
:100210000C9438130C94922B0C94BC040C9448044A
:100220000C9464130C94300B0C94CA060C94930A2F
:100230000C942C0A0C9400130C941C140C94FB05C5
:100240000C94A8040C9458350C94F1040C94970465
:100250000C94BD350C9488350C9415130C949804AB
:100260000C948F2A0C945D350C94B6380C94520B78
:100270000C943B140C94B50A0C9460050C947C2AE5
:100280000C94A1050C944D140C9443140C94E30AA3
:100290000C94E0230C94C8120C94DC050C94990483
:1002A0000C94840A0C9420140C942A040C94571473
:1002B0000C9413070C9426140C9441120C945A0AB3
:1002C0004E414E494E495459494E46CDCCCC3D0A3B
:1002D000D7233C17B7D13877CC2B329595E6241F1E
:1002E000B14F0A000020410000C84200401C4620D7
:1002F000BCBE4CCA1B0E5AAEC59D7400407A10F3AA
:100300005A00A0724E18090010A5D4E80000E87643
:1003100048170000E40B54020000CA9A3B0000009A
:10032000E1F505000080969800000040420F0000B3
:1003300000A08601000000102700000000E8030074
:100340000000006400000000000A0000000000013E
:1003500000000000002C76D888DC674F0823DFC13E
:10036000DFAE59E1B1B796E5E3E453C63AE65199F9
:100370007696E8E6C28426EB898C9B62ED407C6F22
:10038000FCEFBC9C9F40F2BAA56FA5F490055A2AD9
:10039000F75C936B6CF9676DC11BFCE0E40D47FEE5
:1003A000F520E6B500D0ED902E03009435770500DA
:1003B00080841E080000204E0A000000C80C333361
:1003C00033330F986E12831141EF8D2114893BE670
:1003D0005516CFFEE6DB18D1844B381BF77C1D90F9
:1003E0001DA4BBE424203284725E228100C9F12462
:1003F000ECA1E53D27485454502F312E31203230A6
:1004000030204F4B0D0A4163636573732D436F6E4C
:1004100074726F6C2D416C6C6F772D4F72696769C8
:100420006E3A202A0D0A4163636573732D436F6E24
:1004300074726F6C2D416C6C6F772D4D6574686FA5
:1004400064733A20504F53542C204745542C20506D
:1004500055542C204F5054494F4E530D0A436F6E44
:1004600074656E742D547970653A206170706C6992
:10047000636174696F6E2F6A736F6E0D0A436F6EDE
:100480006E656374696F6E3A20636C6F73650D0AF5
:100490000D0A005374617465206F6620627566668C
:1004A00065722061742074686520656E643A20006E
:1004B0000D0A007B002C20007B2272657475726E21
:1004C0005F76616C7565223A20002C20007B00224B
:1004D0002C20002073657420746F20007B226D65D2
:1004E0007373616765223A202250696E2044002CA4
:1004F0002000223A20002241007B002C20007B2299
:1005000072657475726E5F76616C7565223A200053
:10051000222C20002073657420746F20007B226DD4
:10052000657373616765223A202250696E2044002A
:100530002C2000223A20002244007B002C20007B4B
:100540002272657475726E5F76616C7565223A20F1
:10055000002073657420746F206F75747075742239
:100560002C20002073657420746F20696E70757480
:1005700020776974682070756C6C7570222C20006F
:100580002073657420746F20696E707574222C203E
:10059000007B226D657373616765223A2022506982
:1005A0006E2044005374617465206F662062756626
:1005B000666572206174207468652073746172745A
:1005C0003A200053746174653A2000436F6D6D6189
:1005D0006E643A200053656E64696E6720636F6DC8
:1005E0006D616E64004275666665722073697A6536
:1005F0003A20004275666665722073697A653A2012
:100600000053656E74206275666665723A2000421A
:1006100075666665722073697A653A2000005EBC73
:10062000E2613FDD83C29C7E20A3FD1F41009D232C
:10063000BE46DB65F88C11AF32CA57E97400000A78
:100640000B02090C0D0E0807030401000000000056
:10065000000000000000000000000000000000009A
:100660000000000000000000001211100000000057
:10067000000000000000000000000000000000007A
:1006800000000000002100240027002A002D003077
:1006900000330001010000040107010A01000022EB
:1006A00000250028002B002E00310034000201003C
:1006B00000050108010B010000200023002600298D
:1006C000002C002F00320000010000030106010988
:1006D0000105050505070508080808020202020AC7
:1006E0000A080804040404010101010101010103D5
:1006F00003030303030303040707070C0C0C0C0C90
:100700000C0C0C0202020206060606060606060B82
:100710000B0B0B0B0B0B0B010210202008081020F9
:10072000401020408002010201080402010102047D
:10073000081020408080402010080402018004023C
:100740000180402010080402010804020101020493
:100750000810204080010204081020408041646499
:10076000656420746F20627566666572206173200F
:1007700070726F676D656D3A20000D0A007D2C2048
:10078000002C20007B227661726961626C657322A5
:100790003A207B00416464656420746F2062756652
:1007A00066657220617320636861723A20003A20A6
:1007B000002C2022636F6E6E6563746564223A209C
:1007C000747275657D002C20226861726477617295
:1007D00065223A20002C20226E616D65223A2000AD
:1007E000226964223A200000B638903811241FBED6
:1007F000CFEFD1E2DEBFCDBF00E00CBF15E0A0E03F
:10080000B2E0EEE5F9E800E00BBF02C007900D9200
:10081000A436B107D9F720E1A4E6B5E001C01D92E6
:10082000AF3DB207E1F713E0C5EFD3E000E006C04B
:1008300021970109802FFE010E943D42C43FD1074C
:1008400080E00807A9F70E94D52B0C949D440C94D6
:1008500000000895CF93DF931F92CDB7DEB7698371
:10086000DC01ED91FC910280F381E02D41E050E04C
:10087000BE016F5F7F4F19950F90DF91CF91089563
:10088000FC01818D928D0895FC01848595850895E4
:10089000FC018489958908952EE033E0FC013183C1
:1008A0002083FB014089518962897389FC0142835D
:1008B0005383648375830895DC01ED91FC91048C6E
:1008C000F58DE02D199480E0089585ED8093BC00AE
:1008D0008091BC0084FDFCCF1092BB06089540912E
:1008E0001A06262F30E0240F311D21323105DCF4A9
:1008F0002091BB062430C9F4FC0180E090E086170B
:1009000058F430911A062191DC01A650BA4FA30F7A
:10091000B11D2C930196F3CF80911A06680F609356
:100920001A0680E0089581E0089582E00895089510
:100930000895E091F5058091F405E81730F4F0E0B2
:10094000EC52FA4F808190E008958FEF9FEF089569
:100950009091F5058091F405981750F4E92FF0E097
:10096000EC52FA4F208130E09F5F9093F50502C072
:100970002FEF3FEFC90108958091F40590E0209199
:10098000F505821B91090895CF92DF92EF92FF92B5
:100990000F931F93CF93DF937C01CB018A012091AA
:1009A000BC06222389F0EB016B01C40ED51ECC15C9
:1009B000DD0569F06991D701ED91FC910190F0811D
:1009C000E02DC7011995F3CF642F0E946F04C80171
:1009D000DF91CF911F910F91FF90EF90DF90CF901B
:1009E0000895CF93DF931F92CDB7DEB7698320912F
:1009F000BC062223D1F02091DF06203240F021E016
:100A000030E0FC013383228380E090E015C08091C8
:100A1000BD06E82FF0E0E254F94F998190838F5F93
:100A20008093BD068093DF0605C061E0CE0101968C
:100A30000E946F0481E090E00F90DF91CF910895C4
:100A4000EF92FF921F93CF93DF931F921F92CDB728
:100A5000DEB77C01FC016481758181E20E949A22EB
:100A6000182F883028F5CE0101960E94B11A89818D
:100A70009A810E945620812F0E945120833131F0AB
:100A80000E945520812F0E941E2212C062E070E059
:100A9000812F0E94D0140E945520F70184819581F6
:100AA000E12FF0E0EE0FFF1FEB58F94F91838083A9
:100AB0000F900F90DF91CF911F91FF90EF900895CD
:100AC000CF92DF92EF92FF920F931F93CF93DF931A
:100AD00000D000D0CDB7DEB78C016B017A01FC01EC
:100AE000808D883010F40E9439228EE093E09A8342
:100AF0008983F60182819381A481B5818B839C8354
:100B0000AD83BE83B701CE0101960E94550BF8015B
:100B1000808F883030F4F586E486128E118E81E065
:100B200001C080E026960FB6F894DEBF0FBECDBFA1
:100B3000DF91CF911F910F91FF90EF90DF90CF90B9
:100B40000895CF93DF93FC01808D883028F4EF0166
:100B50000E94392288E0888FDF91CF9108950F930A
:100B60001F93CF93DF93EC018B01888D883010F4B5
:100B70000E943922B80182E00E949A22888F883030
:100B800030F41D870C871A8E198E81E001C080E039
:100B9000DF91CF911F910F910895FC01808D8830D6
:100BA00040F4218D328D232B21F00E94EF2090E024
:100BB00008958FEF9FEF0895CF93DF93FC01218D70
:100BC000328D2115310519F48FEF9FEF11C0EC0123
:100BD0004217530708F0A901888D0E944A21181670
:100BE000190694F7298D3A8D281B390B3A8F298FD6
:100BF000DF91CF9108950F931F93CF93DF931F92AF
:100C0000CDB7DEB7FC01218D328D232B61F08C0135
:100C100041E050E0BE016F5F7F4F808D0E944A210E
:100C2000181619061CF08FEF9FEF08C0F801818D90
:100C3000928D0197928F818F898190E00F90DF9143
:100C4000CF911F910F9108950F931F93CF93DF932F
:100C5000CDB7DEB728970FB6F894DEBF0FBECDBF75
:100C60008C01D80159964D915C915A9741155105C7
:100C700051F0ED91FC91048CF58DE02D60E070E079
:100C8000C8011995EECFF801808D0E941B21892B98
:100C900051F148E050E0BE016F5F7F4FD801589698
:100CA0008C910E944A2118161906FCF4D80150961E
:100CB00084E0FE01319601900D928A95E1F78D81D5
:100CC00090E0982F88272E81820F911DF801958B37
:100CD000848B8F8190E0982F88272885820F911D23
:100CE000928F818F02C080E090E028960FB6F89432
:100CF000DEBF0FBECDBFDF91CF911F910F91089541
:100D00007F928F929F92AF92BF92CF92DF92EF929B
:100D1000FF920F931F93CF93DF931F921F92CDB734
:100D2000DEB77C014B01742EC52EFC01A688B78866
:100D3000D08CCE0101960E94B11A89819A810E94BD
:100D400056208D2D0E94A31F072D1C2D8017910763
:100D500008F48C019801A401B5018D2D0E94231F78
:100D60000E945520F70186899789800F911F978BE4
:100D7000868BC8010F900F90DF91CF911F910F913B
:100D8000FF90EF90DF90CF90BF90AF909F908F90AB
:100D90007F9008951F93CF93DF931F921F92CDB73B
:100DA000DEB7FC01108DCE0101960E94B11A898137
:100DB0009A810E94562060E270E0812F0E94D01438
:100DC00062E070E0812F0E94332084FD1CC062E04D
:100DD00070E0812F0E94332083FF0AC048E162E067
:100DE00070E0812F0E9415200E94552080E014C0E1
:100DF0000E945520CE0101960E94B11A89819A81E4
:100E00000E945620DDCF40E162E070E0812F0E9419
:100E100015200E94552081E090E00F900F90DF9107
:100E2000CF911F910895DF92EF92FF920F931F933E
:100E3000CF93DF931F921F92CDB7DEB7FB01DC018A
:100E400057961C921E9256972281211109C0238128
:100E5000211106C02481211103C02581222309F11B
:100E600041155105F1F07A018F01FC01D08CCE01C2
:100E700001960E94B11A89819A810E945620A80188
:100E80004E5F5F4F24E030E06CE070E08D2D0E94FB
:100E9000D31EB7018D2D0E94E51E0E94552081E0D2
:100EA00001C080E090E00F900F90DF91CF911F91F3
:100EB0000F91FF90EF90DF900895AF92BF92CF9285
:100EC000DF92EF92FF920F931F93CF93DF93CDB7F3
:100ED000DEB7AF970FB6F894DEBF0FBECDBF8C0163
:100EE0005B016A01CE0101960E94400C8EE0E82E63
:100EF00083E0F82EFBA6EAA61CA61DA61EA61FA62A
:100F00008091860790918707A0918807B091890703
:100F10008EA39FA3A8A7B9A78B839C83AD83BE8311
:100F200018861F82AE01465D5F4FB501CE01019666
:100F30000E94F70D81309105B1F4D801ED91FC913B
:100F40000488F589E02DFDA2ECA28CA59DA5AEA597
:100F5000BFA58EA39FA3A8A7B9A7A601BE016C5DDC
:100F60007F4FC8011995AF960FB6F894DEBF0FBE3C
:100F7000CDBFDF91CF911F910F91FF90EF90DF9048
:100F8000CF90BF90AF900895DC0180E0615098F061
:100F90002D91982F9227E92FEF70F0E0E35EF94F43
:100FA000249192959F70E92FF0E0E35DF94FE49171
:100FB000822F8E27EBCF0895FC0190810180F28172
:100FC000E02DF8948181892B81832281892F80955E
:100FD00028232283A7E0B0E01197F1F72181822333
:100FE0008183A3E2B0E01197F1F780817894EFEC70
:100FF000F0E03197F1F7982381E009F480E008955B
:10100000FC0190810180F281E02D892F809560FFA5
:1010100012C0F8942281822382838181892B81836B
:10102000A3E2B0E01197F1F78281982B9283789434
:1010300087ED90E011C0F894228182238283818120
:10104000892B8183AFEFB0E01197F1F78281982B64
:10105000928378948FE090E00197F1F70895DF9202
:10106000EF92FF920F931F93CF93DF93EC01D62E55
:10107000E42E08E010E0FF24F39461E08D2D8F2131
:1010800009F460E0CE010E940008FF0C0150110934
:10109000A1F7E11010C0F894E981FA81918188816B
:1010A000809589238183E981FA8192818881809565
:1010B000892382837894DF91CF911F910F91FF90C4
:1010C000EF90DF900895EF92FF920F931F93CF93CD
:1010D000DF938C017B0140E065E50E942F08E7016A
:1010E00088E0E80EF11C699140E0C8010E942F08D9
:1010F000CE15DF05C1F7DF91CF911F910F91FF90C2
:10110000EF900895DC012C911196ED91FC911297CE
:10111000F8948181922F90958923818378948DE72B
:1011200043E050E0815021F1DA011197F1F730816D
:101130003223C1F3F8948281892382838181822BB7
:1011400081837894ABE7B7E01197F1F7F894818148
:101150009823918383E191E00197F1F7808128231F
:1011600081E009F080E07894E3E6F6E03197F1F76A
:1011700008951F920F920FB60F9211240BB60F9283
:101180002F933F934F935F936F937F938F939F938F
:10119000AF93BF93EF93FF938091B900887F803620
:1011A00009F49CC068F5883209F45BC090F4803182
:1011B00009F454C038F4882309F4F6C0883009F4DF
:1011C0004DC0F6C0883109F44CC0803209F45DC0CE
:1011D000EFC0803409F468C048F4803309F455C086
:1011E000883309F0E5C08093B906D8C0803509F48A
:1011F0004FC0883509F45DC0883409F0D9C0D6C025
:10120000883909F4C7C0A8F4883709F467C038F4EE
:10121000883609F463C0803709F460C0C9C08838D3
:1012200009F4B8C0803909F45FC0803809F0C0C043
:101230005BC0803B09F486C038F4803A09F466C08C
:10124000883A09F47FC0B4C0803C09F4A7C0883C48
:1012500009F4A4C0883B09F48AC0AAC0809196060C
:1012600010C09091B8068091B706981770F5E0917C
:10127000B80681E08E0F8093B806F0E0E956F94F8A
:1012800080818093BB0085EC86C08093B9068EC0B8
:10129000E091B80681E08E0F8093B8068091BB0084
:1012A000F0E0E956F94F80839091B8068091B70637
:1012B0006EC0E091B80681E08E0F8093B8068091F1
:1012C000BB00F0E0E956F94F80838091BA068111A6
:1012D0006DC081E08093950684EA61C083E08093CD
:1012E000BB0610923C06CFCF80913C06803208F0BE
:1012F00051C0E0913C0681E08E0F80933C068091C6
:10130000BB00F0E0E45EF94F8083BDCF85EC8093B5
:10131000BC001092BB0680913C06803230F4E09114
:101320003C06F0E0E45EF94F108260913C0670E00C
:10133000E091F805F091F9058CE196E0199510928D
:101340003C0636C084E08093BB0610921B061092C8
:101350001A06E091F605F091F705199580911A06A5
:10136000811105C081E080931A061092FA05E09180
:101370001B0681E08E0F80931B06F0E0E650FA4FCB
:1013800080818093BB0090911B0680911A0698176C
:1013900008F479CF85E88093BC000AC085EC80937F
:1013A000BC001092BB0604C01092B9060E946504EE
:1013B000FF91EF91BF91AF919F918F917F916F912D
:1013C0005F914F913F912F910F900BBE0F900FBEE9
:1013D0000F901F901895EF92FF920F931F93CF934A
:1013E000DF93CDB7DEB7A7970FB6F894DEBF0FBE79
:1013F000CDBF7B01DC011296ED91FC9113976081CA
:101400007181828193811BA21AA21DA21CA21FA21C
:101410001EA28E010F5F1F4F22E044E00E945C3A43
:10142000BC01CE0182960E9450116AA17BA140E0CE
:10143000C7010E949A2ACE0182960E947E11A79629
:101440000FB6F894DEBF0FBECDBFDF91CF911F91D5
:101450000F91FF90EF900895FF920F931F93CF93FA
:10146000DF9300D000D0CDB7DEB78B01FC01F48054
:10147000628173811A8219821C821B821E821D82E4
:10148000CE0101960E94671169817A814F2DC801B2
:101490000E949A2ACE0101960E947E1126960FB6CE
:1014A000F894DEBF0FBECDBFDF91CF911F910F919A
:1014B000FF900895CF92DF92EF92FF920F931F93C8
:1014C000CF93DF936C017A018B01C0E0D0E0CE15A1
:1014D000DF0581F0D8016D918D01D601ED91FC9170
:1014E0000190F081E02DC6011995892B11F021960C
:1014F000EECF7E01C701DF91CF911F910F91FF9039
:10150000EF90DF90CF900895FC01538D448D252FEF
:1015100030E0842F90E0821B930B541710F0CF968D
:10152000089501970895FC01918D828D981761F0BF
:10153000828DDF01A80FB11D5D968C91928D9F5F0A
:101540009F73928F90E008958FEF9FEF0895FC01B5
:10155000918D828D981731F0828DE80FF11D858D68
:1015600090E008958FEF9FEF0895FC01918D228DFB
:10157000892F90E0805C9F4F821B91098F73992780
:101580000895FC01848DDF01A80FB11DA35ABF4F40
:101590002C91848D90E001968F739927848FA68972
:1015A000B7892C93A089B1898C91837080648C93C6
:1015B000938D848D981306C00288F389E02D808175
:1015C0008F7D80830895EF92FF920F931F93CF93A7
:1015D000DF93EC0181E0888F9B8D8C8D981305C083
:1015E000E889F989808185FD26C0F62E0B8D10E0F3
:1015F0000F5F1F4F0F731127E02E8C8DE8120CC068
:101600000FB607FCFACFE889F989808185FFF5CF0D
:10161000CE010E94C10AF1CF8B8DFE01E80FF11DB2
:10162000E35AFF4FF0829FB7F8940B8FEA89FB894A
:10163000808180620AC09FB7F894EE89FF89608339
:10164000E889F98980818370806480839FBF81E00D
:1016500090E0DF91CF911F910F91FF90EF9008954F
:10166000CF93DF93EC01888D8823C9F0EA89FB8949
:10167000808185FD05C0A889B9898C9186FD0FC040
:101680000FB607FCF5CF808185FFF2CFA889B98915
:101690008C9185FFEDCFCE010E94C10AE7CFDF918B
:1016A000CF91089508950E9452448F929F92AF92D5
:1016B000BF92CF92DF92EF92FF920F931F93CF933F
:1016C000DF93CDB7DEB760970FB6F894DEBF0FBEDD
:1016D000CDBF7C0190918506992309F4BDC0933359
:1016E00011F008E001C004E05B01CE0101960E9408
:1016F000B11A89819A810E9456209E012F5F3F4F27
:101700006901490110E0812F0E945120F401819369
:101710004F018823C9F01F5F0113F5CF10E0F601D8
:1017200081916F018D3159F0883149F08A518230B1
:1017300030F01F5F0113F3CF0E9455208DC060E190
:1017400070E0812F0E94D014C12ED12CF601EE0F33
:10175000FF1FEB58F94F1182108283EE93E001973F
:10176000F1F742E860E070E0812F0E9415204FEF12
:1017700062E070E0812F0E941520A114B10411F0E5
:10178000B50113C08091000290910102019681156C
:10179000F0EC9F0710F480E090EC909301028093AE
:1017A00000026091000270910102812F0E94FB1ED5
:1017B00086E0EEE1F2E0DE01199601900D928A9545
:1017C000E1F7F70183818F778C8784818D8785810D
:1017D0008E87A7014E5F5F4F24E030E06CE070E041
:1017E000812F0E94D31EB501812F0E94E51E26E0A5
:1017F00030E0AE01475F5F4F66E070E0812F0E94EE
:10180000D31E61E070E0812F0E94D01427E02C9D50
:10181000C0012D9D900D11249C01235C394F79014D
:10182000F9011182108222E030E0AE01415F5F4F8A
:1018300068E270E0812F0E94111F8F859889982798
:1018400089279827F7019383828316821582148251
:101850000E945520812F01C088E060960FB6F89451
:10186000DEBF0FBECDBFDF91CF911F910F91FF90D3
:10187000EF90DF90CF90BF90AF909F908F900895A2
:10188000FC018EE093E091838083128213821482A4
:1018900015821386128648EE53E060E070E04487BC
:1018A00055876687778720E532E031872087978BD9
:1018B000868B108E118E128E138E88E080A3089571
:1018C000DC01ED91FC910190F081E02D19946115FE
:1018D000710579F0FB0101900020E9F73197AF0124
:1018E000461B570BDC01ED91FC910280F381E02D4A
:1018F000199480E090E008958F929F92AF92BF92EA
:10190000EF92FF920F931F93CF93DF93CDB7DEB784
:10191000A1970FB6F894DEBF0FBECDBF7C01FA01D0
:10192000CB0119A2223008F42AE08E010F5D1F4F6F
:10193000822E912CA12CB12CBF01A50194010E94F3
:10194000E340F901CA01015011096A3014F4605DE5
:1019500001C0695CD8016C93232B242B252B61F7E4
:10196000B801C7010E94670CA1960FB6F894DEBFBC
:101970000FBECDBFDF91CF911F910F91FF90EF90E0
:10198000BF90AF909F908F9008958F929F92AF924B
:10199000BF92CF92DF92EF92FF920F931F93CF935C
:1019A000DF937C018B016C0182E0C80ED11C4701E2
:1019B000E5E08E0E911CC0E0D0E0F60141916F0190
:1019C00050E060E070E02AE0C8010E947C0C5C01FD
:1019D0006EE2C8010E94600C8A0D9B1DC80FD91FC2
:1019E000C814D90451F7F701458150E060E070E078
:1019F0002AE0C8010E947C0C8C0F9D1FDF91CF91C3
:101A00001F910F91FF90EF90DF90CF90BF90AF901C
:101A10009F908F9008950C94670C1F920F920FB6B1
:101A20000F9211240BB60F922F933F934F935F9316
:101A30006F937F938F939F93AF93BF93EF93FF9396
:101A400081EE96E00E94C10AFF91EF91BF91AF91A4
:101A50009F918F917F916F915F914F913F912F91C6
:101A60000F900BBE0F900FBE0F901F9018951F92F6
:101A70000F920FB60F9211240BB60F922F938F93E4
:101A80009F93EF93FF93E091F106F091F20680812E
:101A9000E091F706F091F80682FD12C090818091E6
:101AA000FA068F5F8F732091FB06821751F0E09149
:101AB000FA06F0E0EF51F94F958F8093FA0601C0D6
:101AC0008081FF91EF919F918F912F910F900BBE8D
:101AD0000F900FBE0F901F901895863308F0865315
:101AE00090917B00282F2870977F922B90937B00FA
:101AF0008770806480937C0080917A0080648093FA
:101B00007A0080917A0086FDFCCF80917800209148
:101B1000790090E0922B08953FB7F89480918C065D
:101B200090918D06A0918E06B0918F0626B5A89B48
:101B300005C02F3F19F00196A11DB11D3FBFBA2F5F
:101B4000A92F982F8827820F911DA11DB11DBC01BF
:101B5000CD0142E0660F771F881F991F4A95D1F784
:101B600008958F929F92AF92BF92CF92DF92EF92A1
:101B7000FF926B017C010E948C0D4B015C01C11432
:101B8000D104E104F104F1F00E948C0DDC01CB01E1
:101B900088199909AA09BB09883E9340A105B10596
:101BA00070F321E0C21AD108E108F10888EE880E2E
:101BB00083E0981EA11CB11CC114D104E104F104FE
:101BC00019F7DDCFFF90EF90DF90CF90BF90AF90EF
:101BD0009F908F9008952FB7F89460918806709128
:101BE000890680918A0690918B062FBF08954F92A7
:101BF0005F926F927F928F929F92AF92BF92CF929D
:101C0000DF92EF92FF920F931F93CF93DF93CDB7A5
:101C1000DEB763970FB6F894DEBF0FBECDBF7C0171
:101C20005B013A01FB0120E080E090E06AE0319145
:101C3000332309F140ED430F4A3080F4689FA0013F
:101C4000699F500D1124CA01C097830F911D37FD64
:101C50009A958F3F910559F350F313C03E3289F4A2
:101C6000233079F0D301A20FB11D12968C932F5F10
:101C700080E090E0DCCF233021F4F301858381E024
:101C800021C0F70142815381648175818091800771
:101C900090918107A0918207B09183074817590757
:101CA0006A077B0709F491C10E94EB0D8701085F69
:101CB0001F4F6F7077277C5FC8010E94AF0581308E
:101CC00019F080E090E0D9C18EE093E09A83898397
:101CD000F70182819381A481B5818B839C83AD833D
:101CE000BE8345E350E0BE016F5F7F4FC8010E9495
:101CF0001307892B19F4C12CD12C62C10E94EB0D62
:101D0000F7017783668342E050E0B7016A5F7F4F57
:101D1000C8010E94800681E090E09A83898342E0B6
:101D200050E0BE016F5F7F4FC8010E94800680E0D7
:101D300091E09A83898342E050E0BE016F5F7F4F5C
:101D4000C8010E9480061A82198242E050E0BE015A
:101D50006F5F7F4FC8010E94800642E050E0BE01E5
:101D60006F5F7F4FC8010E94800642E050E0BE01D5
:101D70006F5F7F4FC8010E9480064501F501808199
:101D8000882301F164015601F60181912F01882316
:101D900021F08E3211F06201F6CFC818D9081C1458
:101DA0001D0474F4CD8641E050E0BE01635F7F4FB7
:101DB000C8010E948006A601B401C8010E948006E5
:101DC0004201DCCF1D8641E050E0BE01635F7F4FE2
:101DD000C8010E948006C12CDD24D394DA82C98216
:101DE00042E050E0BE016F5F7F4FC8010E94800655
:101DF000DA82C98242E050E0BE016F5F7F4FC801C6
:101E00000E948006C8010E94CA06892B09F473CF7C
:101E1000E3E0AE2EB12C230122E0420E511C0E94C1
:101E2000EB0D3B014C01C8010E942406181619064F
:101E3000A4F00E94EB0DDC01CB0186199709A809DB
:101E4000B90989389341A105B105D0F462E370E086
:101E500080E090E00E94B10DE6CFF701428153810E
:101E600064817581808D918DA28DB38D481759073E
:101E70006A077B0749F4848D958DC59729F409C0BD
:101E8000CC24CA94DC2C93C05EEFC52EDD24DA94FA
:101E90008EC0F70181A192A10C970CF4E9C04CE02F
:101EA00050E0BE016F5F7F4FC8010E94DC058B814F
:101EB0009C819827892798279A8B898BF7014681DF
:101EC000578129813A814217530709F0C2C097FF11
:101ED000C0C08F709270892B09F0C0C06F80788469
:101EE0007624672476246114710409F4BCC0C12CE3
:101EF000D12C8D819E81982789279827C816D906CD
:101F000008F466C0812C912C41E050E0BE016D5E6A
:101F10007F4FC8010E94DC054B89842F807C09F02B
:101F200076C0442331F050E060E070E0C8010E94C8
:101F3000DC058B898111E8CF42E050E0BE01615F92
:101F40007F4FC8010E94DC0542E050E0BE01635FA4
:101F50007F4FC8010E94DC0544E050E060E070E083
:101F6000C8010E94DC0542E050E0BE016F5E7F4F79
:101F7000C8010E94DC058F85988949895A89811595
:101F8000914009F04DC0CD84DE84DC24CD24DC24D6
:101F900081E0C816D10409F043C04115544009F04E
:101FA00053C044E050E0B201C8010E94DC0521E0CA
:101FB000A21AB10829F0FFEFCF16DF0609F42FCFE0
:101FC000C8010E94A105C60158C08EEF9FEF55C001
:101FD00041E050E0BE01635F7F4FC8010E94DC0515
:101FE0004D85442331F050E060E070E0C8010E946C
:101FF000DC058D858111ECCF44E050E060E070E0BD
:10200000C8010E94DC05FFEFCF1ADF0A72CF41E062
:1020100050E060E070E0C8010E94DC051B8A89CFB7
:1020200054274527542760E070E0C8010E94DC0572
:10203000FFEF8F1A9F0A6814790409F065CF96EFB5
:10204000C92EDD24DA94B3CF77EFC72EDD24DA94DE
:10205000AECF4CEFC42EDD24DA94A9CF3BEFC32ED4
:10206000DD24DA94A4CF2AEFC22EDD24DA949FCFA8
:102070008DEFC82EDD24DA949ACF63960FB6F894CC
:10208000DEBF0FBECDBFDF91CF911F910F91FF90AB
:10209000EF90DF90CF90BF90AF909F908F907F9008
:1020A0006F905F904F9008951F920F920FB60F920E
:1020B00011242F933F938F939F93AF93BF9380915E
:1020C000880690918906A0918A06B0918B0630917E
:1020D000870623E0230F2D3720F40196A11DB11DA3
:1020E00005C026E8230F0296A11DB11D2093870687
:1020F0008093880690938906A0938A06B0938B06F6
:1021000080918C0690918D06A0918E06B0918F06DD
:102110000196A11DB11D80938C0690938D06A0930E
:102120008E06B0938F06BF91AF919F918F913F9193
:102130002F910F900FBE0F901F901895DC018EE02D
:1021400093E08D939D9384E0FB0101900D928A951D
:10215000E1F70895FC01248135816217730720F4AB
:1021600080819181009729F41092860686E896E096
:102170000895860F971F08950F931F93CF93DF93B2
:102180008C01EB01FC0180819181009739F068811D
:10219000798161157105A1F40E94E44288819981D9
:1021A000F801918380838A819B81938382838C81D0
:1021B0009D8195838483198218821B821A820FC0A5
:1021C000F801428153812C813D814217530720F34E
:1021D0000E9488448C819D81F801958384831D82AF
:1021E0001C82DF91CF911F910F9108950F931F9340
:1021F000CF93DF93EC0188819981009729F02A81A0
:102200003B812617370788F48B016F5F7F4F0E9451
:102210006D43009761F0998388831B830A832C8127
:102220003D81232B11F4FC01108281E001C080E08C
:10223000DF91CF911F910F910895CF93DF93EC0120
:1022400088819981009711F00E94E44219821882D6
:102250001D821C821B821A82DF91CF910895EF921A
:10226000FF920F931F93CF93DF93EC017B018A01C1
:10227000BA010E94F610811104C0CE010E941D1106
:1022800007C01D830C83B701888199810E9488440F
:10229000CE01DF91CF911F910F91FF90EF900895A4
:1022A000CF93DF93EC016115710559F0FB010190AB
:1022B0000020E9F73197AF01461B570B0E942F1101
:1022C00002C00E941D11CE01DF91CF910895CF93DE
:1022D000DF93EC01FB018617970761F06081718144
:1022E0006115710529F0448155810E942F1102C0AA
:1022F0000E941D11CE01DF91CF910895FC018081D4
:1023000091810C94E442FC011182108213821282AA
:10231000158214826115710551F0FB0101900020B6
:10232000E9F73197AF01461B570B0C942F11089515
:10233000BF92CF92DF92EF92FF920F931F93CF93B2
:10234000DF937C016B018A01E9012417350720F432
:10235000812F8901C42FD82F6AE574E0C7010E943C
:102360008311D60114968D919C9115970817190722
:10237000C8F48C179D0708F4EC01D601ED91FC918F
:102380001197EC0FFD1FB08010826D917C91600F52
:10239000711FC7010E945011D601ED91FC91EC0F05
:1023A000FD1FB082C701DF91CF911F910F91FF9068
:1023B000EF90DF90CF90BF900895CF93DF93282FB9
:1023C00030E0F901E35CF94F8491F901E95EF84FDF
:1023D000D491F901EF52F94FC491CC2391F08111BE
:1023E0000E940F14EC2FF0E0EE0FFF1FE954F94F9D
:1023F000A591B491EC91ED2381E090E021F480E08F
:1024000002C080E090E0DF91CF910895FC019485B7
:10241000FB018485981303C081E0983008F080E0C8
:102420000895CF93DF931F92CDB7DEB76983DC01A8
:10243000ED91FC910280F381E02D41E050E0BE017E
:102440006F5F7F4F19950F90DF91CF910895FC0139
:1024500020812EBD9B012150310941F051810DB4E5
:1024600007FEFDCF4EB55EBD4193F5CF61507109BA
:10247000FC01E60FF71F0DB407FEFDCF8EB580837C
:1024800008950F931F93CF93DF931F921F92CDB7A1
:10249000DEB7FC0124852830E0F48C01CE010196E2
:1024A0000E94B11A89819A810E94562022E030E070
:1024B000AE014F5F5F4F60E170E0F80184850E94DC
:1024C000111F09811A811027012710270E9455200A
:1024D00002C000E010E0C8010F900F90DF91CF9193
:1024E0001F910F9108950F931F93CF93DF931F9226
:1024F0001F92CDB7DEB7FC0124852830E0F48C01B3
:10250000CE0101960E94B11A89819A810E945620BB
:1025100022E030E0AE014F5F5F4F64E070E0F80111
:1025200084850E94111F09811A8110270127102715
:102530000E94552002C000E010E0C8010F900F90EB
:10254000DF91CF911F910F910895CF93DF93EC010D
:102550008C858830C8F40E945422843181F088230D
:1025600071F0883161F08C3161F4E881F981008487
:10257000F185E02DCE01199521E0892B19F420E099
:1025800001C021E0822F01C080E0DF91CF9108954A
:10259000CF92DF92EF92FF92CF93DF93EC018C8585
:1025A000883038F50E941E220E94EB0D6B017C01E1
:1025B0008C850E9454228823D1F061E070E080E095
:1025C00090E00E94B10D0E94EB0DAB01BC014C19D3
:1025D0005D096E097F098D859E85A0E0B0E04817F2
:1025E00059076A077B0720F38C850E94392288E00F
:1025F0008C87DF91CF91FF90EF90DF90CF9008957F
:10260000CF93DF93EC018C85883060F40E945422D4
:10261000873111F08C3131F48C850E94592081155D
:10262000984088F3DF91CF910895FC01848588302C
:1026300010F40C94592080E090E00895CF93DF933C
:102640001F92CDB7DEB741E050E0BE016F5F7F4F14
:10265000FC0184850E944A21181619061CF4898100
:1026600090E002C08FEF9FEF0F90DF91CF91089520
:10267000FC018485883010F40C944A2180E090E0BD
:102680000895CF93DF93FC012485283018F08FEF55
:102690009FEF0EC0EC010190F081E02D0084F185E8
:1026A000E02D1995892B99F38C850E94EF2090E0FD
:1026B000DF91CF910895FC018485883010F40C944B
:1026C0001B2180E090E008950F931F93CF93DF9339
:1026D000FC018485883068F4C52FD42F8F010E94B7
:1026E0008220009749F421E030E0F801338322830F
:1026F00005C080E090E002C08D2F9C2FDF91CF912C
:102700001F910F910895CF92DF92EF92FF920F9356
:102710001F93CF93DF93CDB7DEB7AF970FB6F89483
:10272000DEBF0FBECDBF8C016B017A01CE010196D9
:102730000E94400C8EE093E09BA78AA71CA61DA6D2
:102740001EA61FA6D8011C968C91883060F40E94AA
:102750005422882321F0F80184850E941E2288E0FB
:10276000D8011C968C938091860790918707A09141
:102770008807B09189078EA39FA3A8A7B9A78B83C9
:102780009C83AD83BE8318861F82AE01465D5F4F7A
:10279000B601CE0101960E94F70D0097C1F0D80155
:1027A000ED91FC910684F785E02D8EE093E09DA3EA
:1027B0008CA38CA59DA5AEA5BFA58EA39FA3A8A7FE
:1027C000B9A7A701BE016C5D7F4FC8011995AF96EF
:1027D0000FB6F894DEBF0FBECDBFDF91CF911F9132
:1027E0000F91FF90EF90DF90CF900895CF93DF93FC
:1027F00080E80E94B21EC4E1D0E00E949F1E8823A0
:1028000051F061E070E080E090E00E94B10D21970E
:10281000A1F780E001C081E0DF91CF91089590E0C1
:10282000FC013197E231F10508F04EC08827EC57E2
:10283000FF4F8F4F0C943D42809180008F7703C0F3
:10284000809180008F7D809380000895809180002A
:10285000877FF9CF84B58F7702C084B58F7D84BD23
:1028600008958091B0008F7703C08091B0008F7D74
:102870008093B0000895809190008F7707C0809179
:1028800090008F7D03C080919000877F809390009F
:1028900008958091A0008F7707C08091A0008F7D60
:1028A00003C08091A000877F8093A000089580914D
:1028B00020018F7707C0809120018F7D03C0809118
:1028C0002001877F8093200108951F93CF93DF938A
:1028D000282F30E0F901E35CF94F8491F901E95EBA
:1028E000F84FD491F901EF52F94FC491CC23C1F0C4
:1028F000162F81110E940F14EC2FF0E0EE0FFF1F36
:10290000E356F94FA591B4919FB7F894111104C003
:102910008C91D095D82302C0EC91DE2BDC939FBF25
:10292000DF91CF911F910895CF93DF9390E0FC0149
:10293000E95EF84F2491FC01EF52F94F849188230E
:1029400061F190E0880F991FFC01ED57F94FC59197
:10295000D491FC01E356F94FA591B491611109C0DE
:102960009FB7F8948881209582238883EC912E2349
:102970000BC0623061F49FB7F8948881322F309594
:1029800083238883EC912E2B2C939FBF06C08FB797
:10299000F894E8812E2B28838FBFDF91CF91089583
:1029A000CF93C82F462F61E070E00E94152061E0B0
:1029B00070E08C2F0E9433208111F9CFCF910895C0
:1029C000AF92BF92CF92DF92EF92FF920F931F933D
:1029D000CF93DF931F921F92CDB7DEB78C016B01AF
:1029E0005A01FC018485883058F40E9454228823BF
:1029F00021F0F80184850E941E2288E0F801848776
:102A0000F60182819381A481B5810097A105B1056A
:102A100009F45DC08F3F9F4FAF4FBF4F09F457C0C0
:102A200060E070E081E20E949A22F82EF80184872B
:102A3000F7E0F81708F44BC0CE0101960E94B11AD6
:102A400089819A810E945620A6014E5F5F4F24E043
:102A500030E06CE070E08F2D0E94D31EB5018F2D09
:102A60000E94E51E64E070E08F2D0E94D0140E9449
:102A700055200E94EB0D6B017C01F80184850E94BA
:102A80005422873139F18C3129F1882301F10E94D8
:102A9000EB0DAB01BC014C195D096E097F09F80112
:102AA00085859685A0E0B0E084179507A607B7074F
:102AB00038F061E070E080E090E00E94B10DDDCF81
:102AC000F80184850E94392288E0F801848780E03B
:102AD00090E002C081E090E00F900F90DF91CF91E5
:102AE0001F910F91FF90EF90DF90CF90BF90AF902C
:102AF0000895AF92BF92CF92DF92EF92FF920F9321
:102B00001F93CF93DF9300D01F92CDB7DEB78C0118
:102B10006B017A01809185068333F1F45B016801D2
:102B2000C40ED51E0C151D0509F460C00E94941E2C
:102B30008FE00E94C51E812F0E94C51E802F0E941B
:102B4000C51E0F5F1F4F80E00E94C51EF5018193D7
:102B50005F010E948A1EE6CF8433F1F40E94941E26
:102B600019830A838F2D8F778B83EC8264E070E06A
:102B7000CE0101960E942712A70160E070E0C60115
:102B80000E946D44E114F10421F0B701C6010E94D6
:102B900027120E948A1E2AC00E94941E0F3F110510
:102BA00009F020F419820A831B821DC017FD0BC097
:102BB00019820A8333E0169507953A95E1F7007E6E
:102BC00008600B8310C0C80126E0969587952A956A
:102BD000E1F719830A83807E0115104C10F480619F
:102BE00001C088618B8363E070E0C2CFC7010F90A2
:102BF0000F900F900F90DF91CF911F910F91FF9049
:102C0000EF90DF90CF90BF90AF900895AF92BF92BA
:102C1000CF92DF92EF92FF920F931F93CF93DF93A8
:102C2000CDB7DEB728970FB6F894DEBF0FBECDBF85
:102C30008C017B016A01809185068333E1F45801A0
:102C4000A40EB51E0A151B0509F48BC00E94941E24
:102C500080EF0E94C51E812F0E94C51E802F0E94FA
:102C6000C51E0F5F1F4FF70181917F010E94C51E96
:102C70000E948A1EE7CF843321F50E94941E198397
:102C80000A838D2D80688B83CC8264E070E0CE0156
:102C900001960E94271287010C0D1D1DE016F106FA
:102CA00069F0F70181917F010E94C51EF7CFB6013F
:102CB0006D5F7F4FCE0101960E9427120E948A1EEF
:102CC00050C00E94941E0F3F110509F020F4198294
:102CD0000A8384E01CC017FD0BC019820A8333E00D
:102CE000169507953A95E1F7007E0C600B8310C0AE
:102CF000C80126E0969587952A95E1F719830A83FE
:102D0000807E0115104C10F4846101C08C618B83AE
:102D100026E0C216D10498F420E0822F90E08C15B2
:102D20009D0528F6E4E0F0E0EC0FFD1FE80FF91F29
:102D3000D701A80FB91F8C9180832F5FEECF63E07E
:102D400070E0CE0101960E94271287010C0D1D1D17
:102D5000F70181917F010E94C51EE016F106C1F7BF
:102D6000ADCFC60128960FB6F894DEBF0FBECDBF1B
:102D7000DF91CF911F910F91FF90EF90DF90CF9057
:102D8000BF90AF9008951F93CF93DF9300D0CDB73E
:102D9000DEB760E372E080E090E00E94B10D1FB703
:102DA000F89480919406811127C0E6E0F7E08491C1
:102DB000ECE4F7E09491E82FF0E0EE0FFF1FED5701
:102DC000F94FA591B491EC91E92321F461E085E3F9
:102DD0000E94651461E085E30E9494148CB58061C3
:102DE0008CBD8CB580648CBD61E084E30E9494143A
:102DF00061E083E30E949414809194068F5F809336
:102E000094061FBFEBEDF6E0E491F0E0EE0FFF1F3C
:102E1000E356F94F85919491909392068093910691
:102E2000E1E2F7E0E491E093900661E08AE00E943D
:102E300094140E948A1ECE0101960E94B11A8981C3
:102E40009A810E94562084E3809385060E94F6139F
:102E50008823A9F188E00E94B21E0E949F1E88303C
:102E600071F580E10E94B21E0E949F1E803139F5EB
:102E700080E00E94B21E0E949F1E811120C041E08E
:102E800050E0BE016F5F7F4F8FE190E00E947915A7
:102E900089818330A1F480E48093930610E042E0BE
:102EA0006EE170E0812F0E94152042E06FE170E03A
:102EB000812F0E9415201F5F183089F72BC087E3F0
:102EC000809385060E94F613882351F188E00E94C2
:102ED000B21E0E949F1E883019F580E10E94B21E2A
:102EE0000E949F1E182F8031D9F480E00E94B21EEC
:102EF0000E949F1E811114C041E050E0BE016F5F2F
:102F00007F4F89E390E00E9479158981843041F4F4
:102F1000109393060E94552081E08093E0063AC00A
:102F200083E3809385060E94F613882371F180E184
:102F30000E94B21E0E949F1E803139F582E10E94DC
:102F4000B21E0E949F1E823101F580E00E94B21ED7
:102F50000E949F1E811119C084E08093930615E59D
:102F60001B8341E050E0BE016D5F7F4F8BE190E03D
:102F70000E940616198341E050E0BE016F5F7F4F4B
:102F80008AE190E00E940616C5CF109285060E9445
:102F9000552080E00F900F900F90DF91CF911F91FF
:102FA0000895EF92FF920F931F93CF93DF9300D07A
:102FB0001F92CDB7DEB78C017B01FB018485883081
:102FC00050F08EE093E0F8019183808312821382A7
:102FD000148215821BC0CE0101960E94B11A89810C
:102FE0009A810E94562024E030E0AE014F5F5F4F8F
:102FF0006CE070E0F70184850E94111F0E9455204B
:10300000BE016F5F7F4FC8010E949E10C8010F90E4
:103010000F900F900F90DF91CF911F910F91FF9024
:10302000EF900895CF92DF92EF92FF92CF93DF93CC
:10303000B0917810882311F0AB2F01C0A0E08091EF
:10304000791090E0880F991F8954994FC0907E1095
:10305000D0907F10E0908010F090811020E030E060
:10306000FC01C591D491E881EB23A90160E070E0F7
:10307000EA130CC02F5F3F4F4C155D056E057F05B1
:1030800078F33FEF2FEF8FEF9FEF03C0322F252F05
:10309000CB01632F722FDF91CF91FF90EF90DF90E4
:1030A000CF90089520E3FC0120833296862F8295ED
:1030B0008F7090E1899F601911246A3014F4605D6B
:1030C00001C0695C6293682F8111F0CF08954F921F
:1030D0005F926F927F928F929F92AF92BF92CF92A8
:1030E000DF92EF92FF92CF936B017C019B01AC01C9
:1030F0000E94FB41882319F065E474E01AC0460180
:103100005701E894B7F82FEF3FEF4FE75FE7C501AE
:10311000B4010E94FB41811112C02FEF3FEF4FE736
:103120005FE7C501B4010E948A3F181644F469E4C0
:1031300074E081EE96E00E94670C7C017EC02FEF68
:103140003FEF4FE75FE4C701B6010E94B041181698
:103150001CF46DE474E0EDCF2FEF3FEF4FE75FEC31
:10316000C701B6010E948A3F87FDF3CF20E030E01F
:10317000A901C701B6010E948A3F87FF0BC06DE21B
:1031800081EE96E00E94600C5C01F7FAF094F7F88B
:10319000F09402C0A12CB12C2AE037ED43EA5BE3A6
:1031A000C701B6010E9415412B013C010E948141DB
:1031B0006B017C010E948F3F9B01AC01C301B201F6
:1031C0000E9414412B013C012AE0B701A60181EEC7
:1031D00096E00E947C0C7C01EA0CFB1C6EE281EE06
:1031E00096E00E94600CE80EF91EC3E0C15029F180
:1031F00020E030E040E251E4C301B2010E94F03F20
:103200002B013C010E9481414B01A12CB12C2AE0F1
:10321000B501A40181EE96E00E947C0CE80EF91E37
:10322000C501B4010E948F3F9B01AC01C301B201F3
:103230000E9414412B013C01D9CF0E943A248E0DEB
:103240009F1DCF91FF90EF90DF90CF90BF90AF90F8
:103250009F908F907F906F905F904F900895CF9246
:10326000DF92EF92FF920F931F93CF93DF93CDB72F
:10327000DEB7C054D1400FB6F894DEBF0FBECDBF4D
:103280000E94EB0D00917A1010917B1020917C1020
:1032900030917D106B017C01C01AD10AE20AF30A59
:1032A00040EDC41647E0D406E104F10418F480911F
:1032B0008210C1C060937A1070937B1080937C1051
:1032C00090937D10109275101092741010927310DC
:1032D000109272101092711062E0809176100E942C
:1032E000941461E070E080E090E00E94B10D61E034
:1032F000809176100E94941460E0809176100E9474
:103300006514809177108551823028F48BE291E129
:103310000197F1F706C064E170E080E090E00E9460
:10332000B10D62E0809176100E9494148BE990E0D8
:103330000197F1F7F89480E00E9412186F3F7F4FD9
:103340008F4F9F4F21F410928210789441C081E0FA
:103350000E9412186F3F7F4F8F4F9F4FA1F38E0136
:103360000F5F1F4F6E012FEBC21A2EEFD20A7801AA
:1033700080E00E941218F701608371838283938337
:1033800081E00E941218F701648375838683978316
:10339000F8E0EF0EF11CEC14FD0451F7789420E0F6
:1033A00030E0F801C080D180E280F3804481558113
:1033B00066817781FFEFCF16DF06EF06FF0631F05B
:1033C0004F3F8FEF58076807780721F4109282105B
:1033D00080E031C0F90183E0F595E7958A95E1F742
:1033E000EF58FF4E8081880FC416D506E606F70613
:1033F00008F4816080832F5F3F4F085F1F4F2832A2
:10340000310579F62091751030E04091711080916E
:10341000721090E0840F911D40917310840F911DE4
:1034200040917410840F911D99272817390771F660
:1034300081E080938210C05CDE4F0FB6F894DEBF4F
:103440000FBECDBFDF91CF911F910F91FF90EF90F5
:10345000DF90CF900895CF93DF93AC0160E070E0F0
:103460002AE081EE96E00E947C0CEC010E943A2456
:103470008C0F9D1FDF91CF9108950F931F93CF93D2
:10348000DF93EC018B0185E090E00E944C42FC014F
:103490008AE792E0918380831383028381E08483AF
:1034A0006AEB7FE0DB019C91292F30E0220F331F74
:1034B0002255384FA901435F574FDA01ED93FC9332
:1034C000F901EB5CF74FD183C0839F5FFB019083D1
:1034D000DF91CF911F910F9108950F931F93CF9379
:1034E000DF93CDB7DEB729970FB6F894DEBF0FBED6
:1034F000CDBF8C0180915510909156100E9482088A
:10350000882309F1BE016F5F7F4FC8010E949A2492
:103510008823C9F068E0CE0101960E94C40799850E
:10352000891311C08D818F3361F020F48F3159F4EC
:1035300089E00CC08F3519F08F3739F004C08BE06B
:1035400005C08AE003C080E001C08CE029960FB678
:10355000F894DEBF0FBECDBFDF91CF911F910F91C9
:10356000089520E5FC01208321E021830895CF9276
:10357000DF92EF92FF92CF93DF93CDB7DEB7C454C3
:10358000D1090FB6F894DEBF0FBECDBFFC0142815A
:1035900053816481758123964CAF5DAF6EAF7FAF71
:1035A000239781E023968FAF23972396CCACDDAC95
:1035B000EEACFFAC2397CBAADCAAEDAAFEAA4DA7DE
:1035C0005EA76FA778AB88ABCDA4DEA4EFA4F8A864
:1035D000CFA2D8A6E9A6FAA68EABCBA8DCA8EDA808
:1035E000FEA8C9A2DAA2EBA2FCA22EE033E03C8B3B
:1035F0002B8B9FEF9D8B9E8B9F8B188E3E872D87ED
:103600008AA7CFA0D8A4E9A4FAA4CF86D88AE98A49
:10361000FA8A8CA389A19AA1ABA1BCA189879A87B8
:10362000AB87BC873A8329834B835C836D837E831E
:103630008091E0068823D1F1CE018D5B9F4F0E94DF
:10364000B11A25968EAD9FAD25970E94562046E073
:1036500050E062E072E089E090E00E940616CE0140
:1036600003960E94CC1E44E050E0BE01615F7F4F94
:1036700081E090E00E94061644E050E0BE016B5EDF
:103680007F4F85E090E00E9406160E94552081E061
:103690008C8789859A85AB85BC85809386079093B6
:1036A0008707A0938807B093890704C00E94C316B8
:1036B0008111C2CFCC5BDF4F0FB6F894DEBF0FBED7
:1036C000CDBFDF91CF91FF90EF90DF90CF90089525
:1036D0007F928F929F92AF92BF92CF92DF92EF92A2
:1036E000FF920F931F93CF93DF93CDB7DEB7A697CB
:1036F0000FB6F894DEBF0FBECDBF8C01762E942E90
:10370000852E20E2B22ECE0101967C01FC012B2DEC
:1037100011922A95E9F78EE093E09AA389A38FEF9F
:103720008BA38CA38DA38EA3680183E4C80ED11C48
:1037300043E450E0BE016F5D7F4FC6010E94130756
:10374000019609F4B9C081E089838A8386E0A82EB6
:10375000AB821C82F80164817581868197810E9409
:1037600045426D837E838F83988789869A8680E819
:1037700090E09C878B874CE150E0B701C6010E9426
:103780008006F7012B2D11922A95E9F7480188E070
:10379000880E911CF401D70101900D92AA94E1F7D3
:1037A00040E150E0B701C6010E948006F701119286
:1037B000BA94E9F796E0A92EB12C40E250E0B701A7
:1037C000C6010E948006F1E0AF1AB108B1F783E6A6
:1037D000898392E89A8393E59B838C8385E38D8329
:1037E00081E08E837F829DE3988797E099878A871F
:1037F00086E0F401DE011B9601900D928A95E1F7B7
:103800008CE0898B8A8B61E574E0CE0143960E943F
:103810008844F8016385CE0149960E945218F80148
:103820006485CE014B960E945218F8016585CE0141
:103830004D960E9452184EE150E0B701C6010E9419
:103840008006F3E07F121EC082E3898384E08A83CE
:10385000F80196859B8397859C8390899D839189A8
:103860009E8396E39F838887828D8987838D8A874D
:10387000848D8B87858D8C874CE050E0B701C60125
:103880000E94800687E3898386E08A8391E09B8398
:1038900093E09C838D838FE08E838AE38F838BE319
:1038A00088878FEF898749E050E0B701C6010E9401
:1038B0008006C6010E94CA06A6960FB6F894DEBF1F
:1038C0000FBECDBFDF91CF911F910F91FF90EF9071
:1038D000DF90CF90BF90AF909F908F907F90089592
:1038E0003091DF06313208F04BC08091BB06811168
:1038F000FCCF9091DE0622E02093BB0621E02093CE
:10390000BA062FEF2093B9061092B8063093B70687
:10391000EEEBF6E0A7E9B6E020E0321721F04191A6
:103920004D932F5FFACF1092960620919606990F2D
:10393000922B9093960690919506913061F4109297
:103940009506909196069093BB009091BC0093FDD4
:10395000F8CF95EC01C095EE9093BC009091BB061A
:103960009230E1F39091B9069F3F79F08091B906CA
:10397000803241F08091B906803331F084E005C097
:1039800081E003C082E001C083E01092BD06109286
:10399000DF061092BC0608952F923F924F925F92DD
:1039A0006F927F928F929F92AF92BF92CF92DF924F
:1039B000EF92FF920F931F93CF93DF93CDB7DEB7B4
:1039C000E9970FB6F894DEBF0FBECDBF7C014A0168
:1039D0005B0119010E94EB0D2B013C0187010D5B7E
:1039E0001F4FC8010E94240618161906A4F00E9451
:1039F000EB0DDC01CB0184199509A609B7098816DE
:103A00009906AA06BB06D8F062E370E080E090E079
:103A10000E94B10DE6CF42E250E0BE016F5F7F4FE2
:103A2000C8010E94DC058981823011F080E035C137
:103A3000F8018489958983349105C1F702C08FEF1D
:103A40002CC16D817E818F8198850E9445422B011A
:103A50003C01F101608371838283938346E050E0EF
:103A6000B701685F7F4FCE014D960E945744892B66
:103A7000E9F6F70180819181A281B3814816590648
:103A80006A067B0698F284819581A681B7818415A8
:103A90009505A605B70550F289899A89AB89BC8935
:103AA00086879787A08BB18B4EEC50E060E070E08A
:103AB000C8010E94DC051FA66701F2E2CF0ED11CEF
:103AC000C701869699AB88ABF701BA96FBABEAAB18
:103AD0004701FAE18F0E911C8D969DAB8CABF701DF
:103AE0007296FFABEEABCD9799AF88AF17019EE111
:103AF000290E311CF801818D928D181619060CF0D3
:103B0000CBC0C8010E94FB058333910509F4A5C011
:103B1000ACF48130910569F11CF4892B59F3B6C0DE
:103B20008330910571F1069709F0B0C0C8010E9479
:103B3000FB055C0144E050E0B1012BC08A339105E4
:103B400009F45FC034F48533910559F0C69771F1DB
:103B50009DC08B33910509F46AC08F3F910551F2E6
:103B600095C0C8010E94FB05C8010E94FB058FA7F4
:103B7000C1CFC8010E94FB0544E050E06EA97FA9B7
:103B800011C0C8010E94FB055C0144E050E068AD33
:103B900079ADC8010E94DC05A501552744505109A3
:103BA00060E070E0C8010E94DC05A4CFC8010E945B
:103BB000FB055C01B401CE0183960E949E108DA18D
:103BC0009EA1AFA1B8A5892B8A2B8B2BA1F0ECA9C4
:103BD000FDA94080518062807380B401CE01899636
:103BE0000E949E108BA59CA5ADA5BEA5841595052C
:103BF000A605B70521F444E050E0B401D3CFA501F8
:103C000049C0C8010E94FB0544E050E068A979A9B9
:103C1000C8010E94DC05F70166A177A180A591A5E6
:103C20000E94454266A377A380A791A763CFC801EE
:103C30000E94FB0544E050E06AA97BA9C8010E94EC
:103C4000DC05F70162A573A584A595A50E944542F0
:103C500062A773A784A795A74DCFC8010E94FB0553
:103C600044E050E0B601C8010E94DC05F70162A102
:103C700073A184A195A10E94454262A373A384A36A
:103C800095A366A777A780AB91AB34CFC8010E94FC
:103C9000FB05AC01552784CF8FA5E9960FB6F894A4
:103CA000DEBF0FBECDBFDF91CF911F910F91FF906F
:103CB000EF90DF90CF90BF90AF909F908F907F90CC
:103CC0006F905F904F903F902F90089520918506C0
:103CD00090E0233311F40C9601C04896982F990F69
:103CE000990F990F80E00895CF93DF931F92CDB77E
:103CF000DEB76983DC01ED91FC910280F381E02D58
:103D000041E050E0BE016F5F7F4F19950F90DF914A
:103D1000CF910895E0919106F09192069081809163
:103D20009006892B80830895E0919106F091920688
:103D30009081809190068095892380830895CF9308
:103D4000DF931F92CDB7DEB741E050E0BE016F5F59
:103D50007F4F80E090E00E94791589810F90DF917C
:103D6000CF910895CF93DF931F92CDB7DEB78983AC
:103D700041E050E0BE016F5F7F4F80E090E00E9425
:103D800006160F90DF91CF9108958EBD00000DB4FF
:103D900007FEFDCF8EB5089544E050E0BC018FE0F2
:103DA00090E00C940616DA0190919306E92FF0E06A
:103DB000FE2FEE27E60FF71F90E0982F8827A90126
:103DC000BD018E0F9F1F0C940616CF93DF931F9299
:103DD0001F92CDB7DEB779836A8322E030E0AE016F
:103DE0004F5F5F4F60E170E00E94D31E0F900F9015
:103DF000DF91CF910895CF93DF931F921F92CDB79C
:103E0000DEB779836A8322E030E0AE014F5F5F4F17
:103E100064E070E00E94D31E0F900F90DF91CF916D
:103E20000895DA0190919306E92FF0E0FE2FEE2736
:103E3000E60FF71F90E0982F8827A901BD018E0F8C
:103E40009F1F0C9479157F928F929F92AF92BF9291
:103E5000CF92DF92EF92FF920F931F93CF93DF9356
:103E60001F921F92CDB7DEB7782E8B014A01590100
:103E700022E030E0AE014F5F5F4F64E270E00E94ED
:103E8000111FE980FA80FE24EF24FE24E00EF11ECB
:103E90009701377040918506072D10E0C801433324
:103EA00011F4089601C04096982F8827990F990F12
:103EB000990F820F931F473319F4A501B40120C055
:103EC000A9014A0D5B1D41305840B8F360E078E02D
:103ED0006B01C21AD30AA601B4010E940616A501FD
:103EE0004C195D09B4016C0D7D1D809185068333ED
:103EF00039F5085F1F4F902F990F990F990F80E0A8
:103F00000E940616EA0CFB1CF982EA8222E030E0ED
:103F1000AE014F5F5F4F64E270E0872D0E94D31EB9
:103F20000F900F90DF91CF911F910F91FF90EF9025
:103F3000DF90CF90BF90AF909F908F907F9008952B
:103F4000005F1F4FD8CFEF92FF921F93CF93DF9365
:103F50001F921F92CDB7DEB7182F22E030E0AE01DE
:103F60004F5F5F4F60E270E00E94111FE980FA80AE
:103F7000FE24EF24FE2422E030E0AE014F5F5F4FCD
:103F800060E270E0812F0E94111F89819A81982739
:103F900089279827E816F90611F07C01ECCF87E015
:103FA000189FF0011124E35CF94FF582E482C70108
:103FB0000F900F90DF91CF911F91FF90EF90089598
:103FC000FF920F931F93CF93DF931F921F92CDB752
:103FD000DEB7F82E22E030E0AE014F5F5F4F66E2C1
:103FE00070E00E94111F09811A81102701271027F4
:103FF00022E030E0AE014F5F5F4F66E270E08F2D50
:104000000E94111F89819A8198278927982708176C
:10401000190711F08C01ECCFC8010F900F90DF91C0
:10402000CF911F910F91FF900895CF93DF931F922F
:10403000CDB7DEB790919306292F30E0322F22279B
:10404000260F371F90E0982F8827498341E050E0E2
:10405000BE016F5F7F4F820F931F0E9406160F9065
:10406000DF91CF910895CF93DF931F92CDB7DEB745
:1040700090919306292F30E0322F2227260F371FE9
:1040800090E0982F882741E050E0BE016F5F7F4F9E
:10409000820F931F0E94791589810F90DF91CF9134
:1040A000089563E070E00C94332008958CBD9DBDAD
:1040B0000895FF920F931F93CF93DF931F921F9248
:1040C000CDB7DEB7F82ECE0101960E94B11A8981D4
:1040D0009A810E9456208F2D0E94A31F8C018F2D44
:1040E0000E945120873129F08C3119F080E090E056
:1040F00001C0C8010F900F90DF91CF911F910F91D8
:10410000FF900895AF92BF92CF92DF92FF920F93EC
:104110001F93CF93DF931F921F92CDB7DEB7F82E78
:104120006B018A014130584010F000E018E0CE01E8
:1041300001960E94B11A89819A810E9456208F2D82
:104140000E94A31F5C018F2D0E945120873111F026
:104150008C3121F4A016B10650F302C000E010E04B
:10416000CE0101960E94B11A89819A810E9456203F
:104170009801A60160E070E08F2D0E94231F60E28D
:1041800070E08F2D0E94D01462E070E08F2D0E94AD
:10419000332084FD0EC08F2D0E945120882389F08A
:1041A000CE0101960E94B11A89819A810E945620FF
:1041B000EBCF40E162E070E08F2D0E941520C80136
:1041C00002C080E090E00F900F90DF91CF911F919F
:1041D0000F91FF90DF90CF90BF90AF9008951F9305
:1041E000CF93DF931F921F92CDB7DEB7182FCE016A
:1041F00001960E94B11A89819A810E945620812FCE
:104200000E94661E27E0129FF0011124E35CF94F23
:1042100022813381377041E050E0BE016F5F7F4FF4
:10422000820F931F0E94791589810F900F90DF9163
:10423000CF911F910895FF920F931F93CF93DF9318
:104240001F921F92CDB7DEB7282F87E0289F8001ED
:104250001124035C194FF80180819181009791F43A
:10426000F22ECE0101960E94B11A89819A810E9494
:1042700056208F2D0E94E01FF8012681821B910994
:10428000918380830F900F90DF91CF911F910F91B9
:10429000FF9008954F925F927F928F929F92AF927C
:1042A000BF92CF92DF92EF92FF920F931F93CF9323
:1042B000DF931F921F92CDB7DEB7782E6B014A01B4
:1042C000A82EB12C27E0829FC0011124AC01435CD1
:1042D000594F7A01FA0100811181CE0101960E94A5
:1042E000B11A89819A810E9456200815190554F443
:1042F000872D0E94E01FF70126818C01021B110906
:10430000118300830115110599F4872D0E94512016
:10431000843109F480C0882309F47DC001E010E0F5
:104320008C3111F400E010E011950195110973C072
:10433000801691060CF4840187E08A9DF0018B9D24
:10434000F00D1124E35CF94FE280F380C114D10435
:1043500059F12701F7E05F22872D0E94661E840D28
:10436000951D20918506273319F4A801B6011AC0BE
:104370009801240D351D21303840B8F320E038E095
:10438000490184189508A401B6010E9479152601F7
:10439000480C591C6801C818D908872D0E94661E50
:1043A000A601B2010E947915E00EF11E87E08A9DF8
:1043B000F0018B9DF00D1124E35CF94FF382E28252
:1043C00080819181801B910B918380832681A8013C
:1043D000420F511D4A3F510510F4892BD9F487E053
:1043E0008A9DF0018B9DF00D1124E35CF94F16823C
:1043F000F982EA8222E030E0AE014F5F5F4F68E26F
:1044000070E0872D0E94D31E60E470E0872D0E942B
:10441000D01401C04683C8010F900F90DF91CF9157
:104420001F910F91FF90EF90DF90CF90BF90AF90D2
:104430009F908F907F905F904F9008951F93CF93A0
:10444000DF931F921F92CDB7DEB7182FCE010196D2
:104450000E94B11A89819A810E94562068E070E01A
:10446000812F0E94D0140F900F90DF91CF911F9158
:1044700008951F93CF93DF931F921F92CDB7DEB79E
:10448000182FCE0101960E94B11A89819A810E944B
:10449000562060E170E0812F0E94D0140F900F90A1
:1044A000DF91CF911F9108951F93CF93DF931F92B8
:1044B0001F92CDB7DEB7182FCE0101960E94B11A18
:1044C00089819A810E945620812F0E9451200F904D
:1044D0000F90DF91CF911F910895EF92FF920F936C
:1044E0001F93CF93DF937C0180918506833311F472
:1044F000D4E001C0D8E005E716E0C0E0F801219162
:1045000031918F01F701848195812817390729F0AE
:10451000CF5FDC13F3CF80E006C08C2F0E945422C3
:104520008431B1F781E0DF91CF911F910F91FF901E
:10453000EF9008958F929F92BF92CF92DF92EF9269
:10454000FF920F931F93CF93DF93CDB7DEB72A97D8
:104550000FB6F894DEBF0FBECDBF909185069111C6
:1045600002C088E092C0933319F028E0B22E02C056
:1045700094E0B92E6B01082FCE0101960E94B11A6A
:1045800089819A810E9456209E012F5F3F4F7901B9
:10459000490110E0812F0E945120F40181934F01C5
:1045A0008823B9F01F5FB112F5CF10E0F7019191A8
:1045B0007F019D3149F0983139F09A51923020F0C5
:1045C0001F5FB112F3CFCDCF60E170E0812F0E9469
:1045D000D014E12EF12CF701EE0FFF1FEB58F94F2D
:1045E0001182108283EE93E00197F1F7402F60E093
:1045F00070E0812F0E9415204FEF62E070E0812F64
:104600000E941520C114D10411F0B60113C080918D
:1046100000029091010201968115F0EC9F0710F4C1
:1046200080E090EC90930102809300026091000280
:1046300070910102812F0E94FB1E61E070E0812FCA
:104640000E94D01427E02E9DC0012F9D900D1124B3
:104650009C01235C394F7901F9011182108222E01B
:1046600030E0AE01475F5F4F68E270E0812F0E944B
:10467000111F89859A85982789279827F7019383A1
:104680008283168215821482812F2A960FB6F8949F
:10469000DEBF0FBECDBFDF91CF911F910F91FF9075
:1046A000EF90DF90CF90BF909F908F9008959F9252
:1046B000AF92BF92CF92DF92EF92FF920F931F9330
:1046C000CF93DF93EC016B0180918506811111C0BE
:1046D0001B821A8288EE93E0A0E0B0E08C839D8379
:1046E000AE83BF8380EE92E09983888388E08C87D5
:1046F00056C0833319F434E0932E02C028E0922E82
:1047000085E7E82E86E0F82E10E098E0B92EA12C7F
:10471000D7012D913C91F6018481958128173907A5
:10472000F9F4812F0E945422082F873111F08C3127
:1047300059F4812F0E941B21892B71F40C3181F4D3
:10474000812F0E941E220CC0843141F0811108C0CB
:10475000D7011D921C9204C0B12E02C0AA24A394BA
:104760001F5FB2E0EB0EF11C9112D2CFA11008C076
:10477000D601ED91FC910084F185E02DC6011995DB
:104780001B821A8288EE93E0A0E0B0E08C839D83C8
:10479000AE83BF8380EE92E099838883BC8688EEE7
:1047A00093E09E878D87CE01DF91CF911F910F916E
:1047B000FF90EF90DF90CF90BF90AF909F900895C3
:1047C0008F929F92AF92BF92CF92DF92EF92FF9221
:1047D0000F931F93CF93DF93CDB7DEB72F970FB60D
:1047E000F894DEBF0FBECDBF20918506222369F16C
:1047F000233319F434E0E32E02C028E0E22E8A01CC
:104800005B016C01BC01CE0101960E94572385E734
:10481000882E86E0982EF12CF401219131914F01E0
:10482000F601848195812817390751F48F2D0E9454
:104830005422873129F4A801B5018F2D0E948220CE
:10484000F394EF10E9CFC80102C080E090E02F960A
:104850000FB6F894DEBF0FBECDBFDF91CF911F9191
:104860000F91FF90EF90DF90CF90BF90AF909F900F
:104870008F90089568E574E081EE96E00C94670CE3
:104880000F931F93CF93DF938C01C0E0D0E0F8012A
:10489000EC0FFD1F6491662341F081EE96E00E94CB
:1048A000E30A892B11F02196F2CFCE01DF91CF914F
:1048B0001F910F910895FC01448155818091B407A7
:1048C0009091B5078417950780F08091B00790917B
:1048D000B107009751F0608171816115710529F070
:1048E0000E948F4421E0892B09F020E0822F089557
:1048F000CF93DF93FC01448155816081718181EE0A
:1049000096E00E945A0AEC010E943A248C0F9D1FE7
:10491000DF91CF910895CF93DF93BC0181EE96E0B4
:104920000E94670CEC010E943A248C0F9D1FDF91BE
:10493000CF910895AF92BF92CF92DF92EF92FF9204
:104940000F931F93CF93DF938B01BC018091551080
:10495000909156100E94630840E06EEB80915510D4
:10496000909156100E942F08E801680189E0C80E56
:10497000D11CA0905510B090561088E0E82EF12C74
:1049800010E001E0C5010E94DC078111102B000F2F
:1049900081E0E81AF108B1F71993CC16DD0649F762
:1049A00080915510909156100E94820891E08130BC
:1049B00009F090E0892FDF91CF911F910F91FF9027
:1049C000EF90DF90CF90BF90AF900895BF92CF92BD
:1049D000DF92EF92FF920F931F93CF93DF93EC013F
:1049E0006B018D85811105C0CE010E948208811165
:1049F00005C01B861D861C8680E060C040E060EF1D
:104A0000CE010E942F0801E0E12CB12C11E0CE0173
:104A10000E94DC07F82ECE010E94DC0791E0F9121B
:104A200003C08130B1F434C02E2D30E0F8121BC029
:104A30008B85181738F4FE01E20FF31F8381802362
:104A400041F402C0811729F0F12C193058F41C8769
:104A500009C0FE01EE0DF11D8381802B8383FF24AD
:104A6000F39409C0B12EFE01E20FF31F9381802F52
:104A70008095892383836F2DCE010E9400081F5FDC
:104A8000000F11F4E39401E087E08E1508F0BFCF2A
:104A9000113408F4AECFBB86B11002C081E08D871F
:104AA0008B81882309F4A5CFDE011396F6012B969E
:104AB0008D918193CA17DB07D9F781E0DF91CF9100
:104AC0001F910F91FF90EF90DF90CF90BF900895CE
:104AD000CF93DF93CDB7DEB72F970FB6F894DEBF35
:104AE0000FBECDBF1B861A861D861C861F861E869E
:104AF0004AE0BE016F5F7F4F90E00E94943BBE0191
:104B00006F5F7F4FCE010A960E9450116A857B85A8
:104B100040E08EEA97E00E949A2ACE010A960E940F
:104B20007E112F960FB6F894DEBF0FBECDBFDF917A
:104B3000CF910895CF93DF93CDB7DEB767970FB6C8
:104B4000F894DEBF0FBECDBF1B8A1A8A1D8A1C8A4D
:104B50001F8A1E8A4AE0BE016F5F7F4F0E94943B0E
:104B6000BE016F5F7F4FCE0142960E9450116A894D
:104B70007B8940E08EEA97E00E949A2ACE01429615
:104B80000E947E1167960FB6F894DEBF0FBECDBFB0
:104B9000DF91CF9108954F925F926F927F92AF9283
:104BA000BF92CF92DF92EF92FF920F931F93CF931A
:104BB000DF93CDB7DEB76E970FB6F894DEBF0FBEAA
:104BC000CDBF6C015B016BE574E08E010F5F1F4F81
:104BD000C8010E948311C8010E947824C8010E9464
:104BE0007E1181E08093BC06C092DE061092BD0665
:104BF0001092DF0662E78AE897E00E94F1040E94C3
:104C0000701C68EE73E080E090E00E94B10D8EE1D0
:104C1000F80111928A95E9F78091BB068111FCCFCA
:104C200081E08093BB068093BA069FEF9093B9060C
:104C30001092B8069FE19093B706809396068091F4
:104C400096069C2D990F892B809396068091950648
:104C5000813061F410929506809196068093BB0096
:104C60008091BC0083FDF8CF85EC01C085EE809378
:104C7000BC008091BB068130E1F38091B8068032A0
:104C800018F49091B80601C090E2A7E9B6E0E4ED0F
:104C9000F5E080E0891721F02D9121938F5FFACF05
:104CA0001092F5058093F4058AE897E00E94A80425
:104CB0007C01712C9091F4058091F505981779F09D
:104CC0008AE897E00E94A804811103C00E94701C2A
:104CD00006C0F801E70DF11D80837394EBCFC70187
:104CE00099278230910571F024F4019791F4C8015D
:104CF0000EC08E3F910549F08F3F910551F48FE82A
:104D000094E005C08EE694E002C08DE794E00E9436
:104D10008B2467E974E081EE96E00E940B0D26017A
:104D20000D2C000C6608770877FE0EC06DE281EE50
:104D300096E00E94600C44275527BA014419550992
:104D4000660977092AE003C02AE0B301A20181EED7
:104D500096E00E947C0C6EEA74E081EE96E00E9480
:104D60000B0DC8010E948B24F4E6CF16D10409F084
:104D70007EC068EB74E0C8010E94493B0E941E3B64
:104D80006093D3107093D4108093D5109093D61065
:104D900068EB74E080E090E00E94493B0E941E3B7B
:104DA0006093CF107093D0108093D1109093D21055
:104DB00068EB74E080E090E00E94493B0E941E3B5B
:104DC0006093CB107093CC108093CD109093CE1045
:104DD00068EB74E080E090E00E94493B0E941E3B3B
:104DE0006093C7107093C8108093C9109093CA1035
:104DF0006AEB74E081EE96E00E940B0D6091D31097
:104E00007091D4108091D5109091D6100E9467189F
:104E10006FEB74E081EE96E00E940B0D6091CF1075
:104E20007091D0108091D1109091D2100E9467188B
:104E300065EC74E081EE96E00E940B0D6091CB1062
:104E40007091CC108091CD109091CE100E94671877
:104E50006BEC74E081EE96E00E940B0D6091C71040
:104E60007091C8108091C9109091CA1042C081E61B
:104E7000C816D10409F040C068EB74E0C8010E9474
:104E8000493B0E941E3B6093C3107093C4108093F3
:104E9000C5109093C61068EB74E080E090E00E942B
:104EA000493B0E941E3B6093BF107093C0108093DB
:104EB000C1109093C21060ED74E081EE96E00E9404
:104EC0000B0D6091C3107091C4108091C51090912A
:104ED000C6100E9467186AED74E081EE96E00E94A9
:104EE0000B0D6091BF107091C0108091C110909116
:104EF000C2100E94671808C0C8010E941E3BF5013D
:104F000060837183828393836E960FB6F894DEBFBD
:104F10000FBECDBFDF91CF911F910F91FF90EF900A
:104F2000DF90CF90BF90AF907F906F905F904F9049
:104F300008954F925F926F927F928F929F92AF925D
:104F4000BF92CF92DF92EF92FF921F93CF93DF93A6
:104F5000CDB7DEB72E970FB6F894DEBF0FBECDBF2C
:104F600067EE74E0CE0101960E948311CE01019696
:104F70000E947824CE0101960E947E110E942F1972
:104F8000882309F44BC0809177108B3008F446C019
:104F90008D30C8F08551823008F040C010917310F8
:104FA000612F6F7770E0762F662780917410682BE1
:104FB00080E090E00E948F3F2DEC3CEC4CEC5DE3F8
:104FC0000E94F03F1CC010917310612F70E080E0D0
:104FD00090E00E948F3F6B017C01609174106F70B4
:104FE00070E080E090E00E94913F2DEC3CEC4CECB6
:104FF0005DE30E94F03FA70196010E94154117FD55
:10500000905826E636E646EE5FE30E94F03F20E049
:1050100030E040E052E40E94154104C060E070E0DE
:1050200080EC9FE76093BB107093BC108093BD1021
:105030009093BE100E942F198823D1F18091771090
:105040008B30B0F18D30A8F08551823088F56091B9
:1050500071107091721076276727762780E090E0B4
:105060000E948F3F2DEC3CEC4CEC5DE30E94F03F46
:105070001CC06091721070E080E090E00E94913F4F
:105080002DEC3CEC4CEC5DE30E94F03F6B017C01AD
:105090006091711070E080E090E00E94913F9B0170
:1050A000AC01C701B6010E9415416B017C0106C02D
:1050B000C12CD12C80ECE82E8FE7F82EC092B710CF
:1050C000D092B810E092B910F092BA108090BB1054
:1050D0009090BC10A090BD10B090BE1020E030E0C9
:1050E00048E852E4C501B4010E9414412AE939E9B3
:1050F00049E95FE30E94F03F2B013C0120E030E0F2
:1051000044E752E4C501B4010E9415419B01AC0182
:10511000C301B2010E9415412B013C0122E133E899
:1051200040EC5DE3C701B6010E94F03F9B01AC017A
:10513000C301B2010E94154120E030E040E05FE38E
:105140000E94F03F2B013C0120E030E04EE952E4A8
:105150000E94B04118160CF075C1A5019401C5015B
:10516000B4010E94F03F2B013C01A7019601C70149
:10517000B6010E94F03F6B877C878D879E8721E177
:1051800033E243E050E4C501B4010E94F03F29E15D
:1051900034E849E252E40E9414416F83788789879A
:1051A0009A8726E13BE442E251E4C701B6010E943E
:1051B000F03F9B01AC016F81788589859A850E94BB
:1051C00015416F83788789879A8728E436E246E617
:1051D0005EEBC501B4010E94F03FA70196010E9459
:1051E000F03F9B01AC016F81788589859A850E948B
:1051F00015416F83788789879A8720EE3FE040EEDC
:105200005BEBC301B2010E94F03F9B01AC016F81D7
:10521000788589859A850E9415416F83788789876B
:105220009A8728EF37E840E65DEB6B857C858D85B6
:105230009E850E94F03F9B01AC016F817885898536
:105240009A850E9415416F83788789879A872CEA0F
:105250003DE041EA5AE3C301B2010E94F03FA701D9
:1052600096010E94F03F9B01AC016F817885898592
:105270009A850E9415416F83788789879A8728ECE1
:105280003FE84FE55AE3C501B4010E94F03F2B858A
:105290003C854D855E850E94F03F9B01AC016F818E
:1052A000788589859A850E9415416F8378878987DB
:1052B0009A8721EF3BE845E056EBC301B2010E941B
:1052C000F03F2B853C854D855E850E94F03F9B011C
:1052D000AC016F81788589859A850E9415412B01E3
:1052E0003C0120E030E040E551E4C701B6010E94F6
:1052F0008A3F87FF5CC020E030E040EA52E4C5010D
:10530000B4010E94B04187FD52C020E030E040EE81
:1053100052E4C501B4010E948A3F18160CF4E0C0A3
:10532000A701960160E070E080E591E40E941441DD
:1053300020E030E040E85EE30E94F03F6B017C013A
:1053400020E030E04EEB52E4C501B4010E9414416C
:105350004B015C0120E030E0A9010E94B041181629
:105360004CF4A501940160E070E088E891E40E94AB
:10537000144108C020E030E048E851E4C501B40120
:105380000E9415412EE33DEE40E75DE30E94F03FB1
:105390000E94BB419B01AC01C701B6010E94F03FD6
:1053A0009B01AC01C301B2010E94144149C020E03D
:1053B00030E04AEA52E4C701B6010E94B041181633
:1053C0000CF040C020E030E040EA52E4C501B401F6
:1053D0000E94B04187FD36C020E030E04EEA52E442
:1053E000C501B4010E948A3F181664F120E030E044
:1053F0004AEA52E4C701B6010E9414412DEC3CEC8C
:105400004CEC5DE30E94F03F6B017C01A50194012F
:1054100060E070E08EEA92E40E9414412DEC3CECD6
:105420004CE45EE30E94F03F9B01AC01C701B60172
:105430000E94F03F9B01AC01C301B2010E941541E3
:105440002B013C014092B3105092B4106092B51001
:105450007092B61068E175E081EE96E00E940B0D47
:105460006091BB107091BC108091BD109091BE10E6
:105470000E9467186BE275E081EE96E00E940B0DCA
:105480006091B7107091B8108091B9109091BA10D6
:105490000E94671862E475E081EE96E00E940B0DB1
:1054A0006091B3107091B4108091B5109091B610C6
:1054B0000E9467182E960FB6F894DEBF0FBECDBFC0
:1054C000DF91CF911F91FF90EF90DF90CF90BF9031
:1054D000AF909F908F907F906F905F904F900895C6
:1054E00020E030E04AEA52E4C701B6010E94B04130
:1054F00018160CF471CFA6CFFC0176876587089546
:10550000DC01ED91FC91068CF78DE02D199591E071
:1055100089270895862F089581E08627089521E040
:10552000FC018485883008F020E0822F089580E017
:1055300090E00895FF920F931F93CF93DF93EC01B8
:105540008B01F42E84E997E00E944024C8010E9458
:105550008B24FF2091F0FE01E75FF74F808191815E
:10556000803D27E0920748F4DE01A80FB91F22E230
:10557000D9962C930196918380839801DE01A75FD1
:10558000B74F5CE5F80101900020E9F73197E01B87
:10559000F10BC901801B910B8E179F0750F58D9160
:1055A0009C911197803D47E09407A8F5FF2091F06A
:1055B000F9014081423211F04C3561F48F3CF7E043
:1055C0009F0749F1FE01E80FF91F51AF01961196AF
:1055D0009C938E938D919C911197F90141919F011C
:1055E000FE01E80FF91F41AF019611969C938E932F
:1055F000C9CFFF2081F0FE01E75FF74F80819181E5
:10560000803D27E0920738F4C80FD91F22E229AF66
:10561000019691838083DF91CF911F910F91FF902D
:1056200008950F931F93CF93DF938C01EB018DE5CA
:1056300097E00E944024CE010E9440240E943A2418
:10564000FE012491D801A75FB74F222391F08D91DD
:105650009C9111973196803D37E0930750F4E80113
:10566000C80FD91F29AF2491019611969C938E9350
:10567000ECCFDF91CF911F910F910895CF93DF93DE
:10568000EC0160EE77E00E94112B6FA178A541E05C
:10569000CE010E949A2A65ED77E0CE010E94112B7F
:1056A000BE016D5E7F4F41E0CE010E949A2A66ECFA
:1056B00077E0CE010E94112B41E06BE575E0CE0151
:1056C0000E949A2A61EB77E0CE01DF91CF910C9492
:1056D000112B0F931F93CF93DF938C01C82FD12FE2
:1056E000C60FD11DC60FD11DFE01EB5CF74F6081C7
:1056F000718141E0912F0E949A2A6EEA77E0C801F9
:105700000E94112BC35FD74F88819981DC01ED91F5
:10571000FC910190F081E02DB801DF91CF911F91B4
:105720000F911994EF92FF921F93CF93DF93EC01A7
:105730008885853729F065EF73E0CE010E94112B33
:1057400064E877E0CE010E94112B10E07E0184EF27
:10575000E81A87EFF80AF70180811817A0F4612F83
:10576000CE010E94692B212F30E0F701808190E06B
:105770000197281739072CF461E877E0CE010E94E1
:10578000112B1F5FE8CF6DE777E0CE010E94112B50
:10579000CE010E943E2B6AE777E0CE01DF91CF91E8
:1057A0001F91FF90EF900C94112BCF93DF93CDB707
:1057B000DEB7E8970FB6F894DEBF0FBECDBF789482
:1057C00084B5826084BD84B5816084BD85B5826006
:1057D00085BD85B5816085BD80916E0081608093B7
:1057E0006E00109281008091810082608093810020
:1057F0008091810081608093810080918000816030
:10580000809380008091B10084608093B10080918A
:10581000B00081608093B00080919100826080939D
:10582000910080919100816080939100809190001F
:105830008160809390008091A10082608093A1009C
:105840008091A10081608093A1008091A00081607F
:105850008093A0008091210182608093210180913A
:1058600021018160809321018091200181608093DA
:10587000200180917A00846080937A0080917A0080
:10588000826080937A0080917A00816080937A00B0
:1058900080917A00806880937A001092C100E09134
:1058A000F106F091F20682E08083E091ED06F0913E
:1058B000EE061082E091EF06F091F00680E1808321
:1058C0001092F906E091F506F091F60686E08083E5
:1058D000E091F306F091F406808180618083E0918D
:1058E000F306F091F406808188608083E091F306EE
:1058F000F091F406808180688083E091F306F09156
:10590000F40680818F7D80838AE393E00E948B245C
:105910008091C40581112AC01092AC051092AB058C
:1059200088EE93E0A0E0B0E08093AD059093AE05E3
:10593000A093AF05B093B00580E592E09093AA05DF
:105940008093A9058EE093E09093B8058093B70506
:105950001092B9051092BA051092BB051092BC05C1
:1059600088E08093C10581E08093C40586E695E0D8
:1059700090936505809364058091E006882309F47F
:105980008AC0CE0101960E94B11A89819A810E9433
:10599000562046E050E062E072E089E090E00E942C
:1059A00006168EE093E09A8389831B821C821D82F7
:1059B0001E82CE0103960E94CC1E0E94552010929A
:1059C00088051092890510928A0510928B05109215
:1059D0008C0510928D0510928E0510928F051092F5
:1059E000900510929105109292051092930580E611
:1059F0009AEEA0E0B0E080939C0590939D05A09363
:105A00009E05B0939F0580EA9FE0A0E0B0E0809300
:105A1000A0059093A105A093A205B093A30584E1EE
:105A2000E4E7F5E0DF011D928A95E9F786E0E2E020
:105A3000F2E0AEE6B5E001900D928A95E1F71092A2
:105A4000A8050E94C73A2FEC37E040E050E00E94E2
:105A5000B140DC01CB010196A11DB11D80936A0507
:105A600090936B05A0936C05B0936D0580936605CC
:105A700090936705A0936805B093690589EA95E05E
:105A80000E94A10564E470E089EA95E00E94AF05F8
:105A9000882329F01DC00E94C316811172CF8FE5A3
:105AA00093E00E948B248EE093E09A838983809117
:105AB0004B1090914C10A0914D10B0914E108B83D3
:105AC0009C83AD83BE83CE0101960E94B71AE2C1CA
:105AD0000E94EB0D4B015C01E12CF12CA3E0DA2ECE
